{
	"contracts/ArrayContract.sol": {
		"ArrayLength": {
			"abi": [
				{
					"inputs": [],
					"name": "array_example",
					"outputs": [
						{
							"internalType": "uint256[7]",
							"name": "",
							"type": "uint256[7]"
						}
					],
					"stateMutability": "payable",
					"type": "function"
				},
				{
					"inputs": [],
					"name": "array_length",
					"outputs": [
						{
							"internalType": "uint256",
							"name": "",
							"type": "uint256"
						}
					],
					"stateMutability": "nonpayable",
					"type": "function"
				}
			],
			"devdoc": {
				"kind": "dev",
				"methods": {},
				"version": 1
			},
			"evm": {
				"assembly": "    /* \"contracts/ArrayContract.sol\":672:976  contract ArrayLength{... */\n  mstore(0x40, 0x80)\n  callvalue\n  dup1\n  iszero\n  tag_1\n  jumpi\n  0x00\n  dup1\n  revert\ntag_1:\n  pop\n  dataSize(sub_0)\n  dup1\n  dataOffset(sub_0)\n  0x00\n  codecopy\n  0x00\n  return\nstop\n\nsub_0: assembly {\n        /* \"contracts/ArrayContract.sol\":672:976  contract ArrayLength{... */\n      mstore(0x40, 0x80)\n      jumpi(tag_1, lt(calldatasize, 0x04))\n      shr(0xe0, calldataload(0x00))\n      dup1\n      0x0cc008bd\n      eq\n      tag_2\n      jumpi\n      dup1\n      0x67227992\n      eq\n      tag_3\n      jumpi\n    tag_1:\n      0x00\n      dup1\n      revert\n        /* \"contracts/ArrayContract.sol\":870:973  function array_length() public returns(uint) {... */\n    tag_2:\n      callvalue\n      dup1\n      iszero\n      tag_4\n      jumpi\n      0x00\n      dup1\n      revert\n    tag_4:\n      pop\n      tag_5\n      tag_6\n      jump\t// in\n    tag_5:\n      mload(0x40)\n      tag_7\n      swap2\n      swap1\n      tag_8\n      jump\t// in\n    tag_7:\n      mload(0x40)\n      dup1\n      swap2\n      sub\n      swap1\n      return\n        /* \"contracts/ArrayContract.sol\":720:862  function array_example() public payable returns(uint[7] memory) {... */\n    tag_3:\n      tag_9\n      tag_10\n      jump\t// in\n    tag_9:\n      mload(0x40)\n      tag_11\n      swap2\n      swap1\n      tag_12\n      jump\t// in\n    tag_11:\n      mload(0x40)\n      dup1\n      swap2\n      sub\n      swap1\n      return\n        /* \"contracts/ArrayContract.sol\":870:973  function array_length() public returns(uint) {... */\n    tag_6:\n        /* \"contracts/ArrayContract.sol\":909:913  uint */\n      0x00\n        /* \"contracts/ArrayContract.sol\":926:932  uint x */\n      dup1\n        /* \"contracts/ArrayContract.sol\":935:946  data.length */\n      0x07\n        /* \"contracts/ArrayContract.sol\":926:946  uint x = data.length */\n      swap1\n      pop\n        /* \"contracts/ArrayContract.sol\":964:965  x */\n      dup1\n        /* \"contracts/ArrayContract.sol\":957:965  return x */\n      swap2\n      pop\n      pop\n        /* \"contracts/ArrayContract.sol\":870:973  function array_length() public returns(uint) {... */\n      swap1\n      jump\t// out\n        /* \"contracts/ArrayContract.sol\":720:862  function array_example() public payable returns(uint[7] memory) {... */\n    tag_10:\n        /* \"contracts/ArrayContract.sol\":768:782  uint[7] memory */\n      tag_14\n      tag_15\n      jump\t// in\n    tag_14:\n        /* \"contracts/ArrayContract.sol\":795:832  data = [uint(10), 20, 30, 40, 50, 60] */\n      mload(0x40)\n      dup1\n      0xc0\n      add\n      0x40\n      mstore\n      dup1\n        /* \"contracts/ArrayContract.sol\":808:810  10 */\n      0x0a\n        /* \"contracts/ArrayContract.sol\":795:832  data = [uint(10), 20, 30, 40, 50, 60] */\n      dup2\n      mstore\n      0x20\n      add\n        /* \"contracts/ArrayContract.sol\":813:815  20 */\n      0x14\n        /* \"contracts/ArrayContract.sol\":795:832  data = [uint(10), 20, 30, 40, 50, 60] */\n      dup2\n      mstore\n      0x20\n      add\n        /* \"contracts/ArrayContract.sol\":817:819  30 */\n      0x1e\n        /* \"contracts/ArrayContract.sol\":795:832  data = [uint(10), 20, 30, 40, 50, 60] */\n      dup2\n      mstore\n      0x20\n      add\n        /* \"contracts/ArrayContract.sol\":821:823  40 */\n      0x28\n        /* \"contracts/ArrayContract.sol\":795:832  data = [uint(10), 20, 30, 40, 50, 60] */\n      dup2\n      mstore\n      0x20\n      add\n        /* \"contracts/ArrayContract.sol\":825:827  50 */\n      0x32\n        /* \"contracts/ArrayContract.sol\":795:832  data = [uint(10), 20, 30, 40, 50, 60] */\n      dup2\n      mstore\n      0x20\n      add\n        /* \"contracts/ArrayContract.sol\":829:831  60 */\n      0x3c\n        /* \"contracts/ArrayContract.sol\":795:832  data = [uint(10), 20, 30, 40, 50, 60] */\n      dup2\n      mstore\n      pop\n        /* \"contracts/ArrayContract.sol\":795:799  data */\n      0x00\n        /* \"contracts/ArrayContract.sol\":795:832  data = [uint(10), 20, 30, 40, 50, 60] */\n      swap1\n      0x06\n      tag_17\n      swap3\n      swap2\n      swap1\n      tag_18\n      jump\t// in\n    tag_17:\n      pop\n        /* \"contracts/ArrayContract.sol\":850:854  data */\n      0x00\n        /* \"contracts/ArrayContract.sol\":843:854  return data */\n      0x07\n      dup1\n      0x20\n      mul\n      mload(0x40)\n      swap1\n      dup2\n      add\n      0x40\n      mstore\n      dup1\n      swap3\n      swap2\n      swap1\n      dup3\n      0x07\n      dup1\n      iszero\n      tag_19\n      jumpi\n      0x20\n      mul\n      dup3\n      add\n      swap2\n    tag_20:\n      dup2\n      sload\n      dup2\n      mstore\n      0x20\n      add\n      swap1\n      0x01\n      add\n      swap1\n      dup1\n      dup4\n      gt\n      tag_20\n      jumpi\n    tag_19:\n      pop\n      pop\n      pop\n      pop\n      pop\n      swap1\n      pop\n        /* \"contracts/ArrayContract.sol\":720:862  function array_example() public payable returns(uint[7] memory) {... */\n      swap1\n      jump\t// out\n    tag_15:\n      mload(0x40)\n      dup1\n      0xe0\n      add\n      0x40\n      mstore\n      dup1\n      0x07\n      swap1\n      0x20\n      dup3\n      mul\n      dup1\n      calldatasize\n      dup4\n      calldatacopy\n      dup1\n      dup3\n      add\n      swap2\n      pop\n      pop\n      swap1\n      pop\n      pop\n      swap1\n      jump\t// out\n    tag_18:\n      dup3\n      0x07\n      dup2\n      add\n      swap3\n      dup3\n      iszero\n      tag_21\n      jumpi\n      swap2\n      0x20\n      mul\n      dup3\n      add\n    tag_22:\n      dup3\n      dup2\n      gt\n      iszero\n      tag_23\n      jumpi\n      dup3\n      mload\n      dup3\n      sstore\n      swap2\n      0x20\n      add\n      swap2\n      swap1\n      0x01\n      add\n      swap1\n      jump(tag_22)\n    tag_23:\n    tag_21:\n      pop\n      swap1\n      pop\n      tag_24\n      swap2\n      swap1\n      tag_25\n      jump\t// in\n    tag_24:\n      pop\n      swap1\n      jump\t// out\n    tag_25:\n    tag_26:\n      dup1\n      dup3\n      gt\n      iszero\n      tag_27\n      jumpi\n      0x00\n      dup2\n      0x00\n      swap1\n      sstore\n      pop\n      0x01\n      add\n      jump(tag_26)\n    tag_27:\n      pop\n      swap1\n      jump\t// out\n        /* \"#utility.yul\":7:84   */\n    tag_28:\n        /* \"#utility.yul\":44:51   */\n      0x00\n        /* \"#utility.yul\":73:78   */\n      dup2\n        /* \"#utility.yul\":62:78   */\n      swap1\n      pop\n        /* \"#utility.yul\":7:84   */\n      swap2\n      swap1\n      pop\n      jump\t// out\n        /* \"#utility.yul\":90:208   */\n    tag_29:\n        /* \"#utility.yul\":177:201   */\n      tag_40\n        /* \"#utility.yul\":195:200   */\n      dup2\n        /* \"#utility.yul\":177:201   */\n      tag_28\n      jump\t// in\n    tag_40:\n        /* \"#utility.yul\":172:175   */\n      dup3\n        /* \"#utility.yul\":165:202   */\n      mstore\n        /* \"#utility.yul\":90:208   */\n      pop\n      pop\n      jump\t// out\n        /* \"#utility.yul\":214:436   */\n    tag_8:\n        /* \"#utility.yul\":307:311   */\n      0x00\n        /* \"#utility.yul\":345:347   */\n      0x20\n        /* \"#utility.yul\":334:343   */\n      dup3\n        /* \"#utility.yul\":330:348   */\n      add\n        /* \"#utility.yul\":322:348   */\n      swap1\n      pop\n        /* \"#utility.yul\":358:429   */\n      tag_42\n        /* \"#utility.yul\":426:427   */\n      0x00\n        /* \"#utility.yul\":415:424   */\n      dup4\n        /* \"#utility.yul\":411:428   */\n      add\n        /* \"#utility.yul\":402:408   */\n      dup5\n        /* \"#utility.yul\":358:429   */\n      tag_29\n      jump\t// in\n    tag_42:\n        /* \"#utility.yul\":214:436   */\n      swap3\n      swap2\n      pop\n      pop\n      jump\t// out\n        /* \"#utility.yul\":442:546   */\n    tag_30:\n        /* \"#utility.yul\":507:513   */\n      0x00\n        /* \"#utility.yul\":535:539   */\n      0x07\n        /* \"#utility.yul\":525:539   */\n      swap1\n      pop\n        /* \"#utility.yul\":442:546   */\n      swap2\n      swap1\n      pop\n      jump\t// out\n        /* \"#utility.yul\":552:695   */\n    tag_31:\n        /* \"#utility.yul\":649:660   */\n      0x00\n        /* \"#utility.yul\":686:689   */\n      dup2\n        /* \"#utility.yul\":671:689   */\n      swap1\n      pop\n        /* \"#utility.yul\":552:695   */\n      swap3\n      swap2\n      pop\n      pop\n      jump\t// out\n        /* \"#utility.yul\":701:799   */\n    tag_32:\n        /* \"#utility.yul\":766:770   */\n      0x00\n        /* \"#utility.yul\":789:792   */\n      dup2\n        /* \"#utility.yul\":781:792   */\n      swap1\n      pop\n        /* \"#utility.yul\":701:799   */\n      swap2\n      swap1\n      pop\n      jump\t// out\n        /* \"#utility.yul\":805:913   */\n    tag_33:\n        /* \"#utility.yul\":882:906   */\n      tag_47\n        /* \"#utility.yul\":900:905   */\n      dup2\n        /* \"#utility.yul\":882:906   */\n      tag_28\n      jump\t// in\n    tag_47:\n        /* \"#utility.yul\":877:880   */\n      dup3\n        /* \"#utility.yul\":870:907   */\n      mstore\n        /* \"#utility.yul\":805:913   */\n      pop\n      pop\n      jump\t// out\n        /* \"#utility.yul\":919:1098   */\n    tag_34:\n        /* \"#utility.yul\":988:998   */\n      0x00\n        /* \"#utility.yul\":1009:1055   */\n      tag_49\n        /* \"#utility.yul\":1051:1054   */\n      dup4\n        /* \"#utility.yul\":1043:1049   */\n      dup4\n        /* \"#utility.yul\":1009:1055   */\n      tag_33\n      jump\t// in\n    tag_49:\n        /* \"#utility.yul\":1087:1091   */\n      0x20\n        /* \"#utility.yul\":1082:1085   */\n      dup4\n        /* \"#utility.yul\":1078:1092   */\n      add\n        /* \"#utility.yul\":1064:1092   */\n      swap1\n      pop\n        /* \"#utility.yul\":919:1098   */\n      swap3\n      swap2\n      pop\n      pop\n      jump\t// out\n        /* \"#utility.yul\":1104:1215   */\n    tag_35:\n        /* \"#utility.yul\":1172:1176   */\n      0x00\n        /* \"#utility.yul\":1204:1208   */\n      0x20\n        /* \"#utility.yul\":1199:1202   */\n      dup3\n        /* \"#utility.yul\":1195:1209   */\n      add\n        /* \"#utility.yul\":1187:1209   */\n      swap1\n      pop\n        /* \"#utility.yul\":1104:1215   */\n      swap2\n      swap1\n      pop\n      jump\t// out\n        /* \"#utility.yul\":1253:1947   */\n    tag_36:\n        /* \"#utility.yul\":1389:1441   */\n      tag_52\n        /* \"#utility.yul\":1435:1440   */\n      dup2\n        /* \"#utility.yul\":1389:1441   */\n      tag_30\n      jump\t// in\n    tag_52:\n        /* \"#utility.yul\":1457:1541   */\n      tag_53\n        /* \"#utility.yul\":1534:1540   */\n      dup2\n        /* \"#utility.yul\":1529:1532   */\n      dup5\n        /* \"#utility.yul\":1457:1541   */\n      tag_31\n      jump\t// in\n    tag_53:\n        /* \"#utility.yul\":1450:1541   */\n      swap3\n      pop\n        /* \"#utility.yul\":1565:1619   */\n      tag_54\n        /* \"#utility.yul\":1613:1618   */\n      dup3\n        /* \"#utility.yul\":1565:1619   */\n      tag_32\n      jump\t// in\n    tag_54:\n        /* \"#utility.yul\":1642:1649   */\n      dup1\n        /* \"#utility.yul\":1673:1674   */\n      0x00\n        /* \"#utility.yul\":1658:1940   */\n    tag_55:\n        /* \"#utility.yul\":1683:1689   */\n      dup4\n        /* \"#utility.yul\":1680:1681   */\n      dup2\n        /* \"#utility.yul\":1677:1690   */\n      lt\n        /* \"#utility.yul\":1658:1940   */\n      iszero\n      tag_57\n      jumpi\n        /* \"#utility.yul\":1759:1765   */\n      dup2\n        /* \"#utility.yul\":1753:1766   */\n      mload\n        /* \"#utility.yul\":1786:1849   */\n      tag_58\n        /* \"#utility.yul\":1845:1848   */\n      dup8\n        /* \"#utility.yul\":1830:1843   */\n      dup3\n        /* \"#utility.yul\":1786:1849   */\n      tag_34\n      jump\t// in\n    tag_58:\n        /* \"#utility.yul\":1779:1849   */\n      swap7\n      pop\n        /* \"#utility.yul\":1872:1930   */\n      tag_59\n        /* \"#utility.yul\":1923:1929   */\n      dup4\n        /* \"#utility.yul\":1872:1930   */\n      tag_35\n      jump\t// in\n    tag_59:\n        /* \"#utility.yul\":1862:1930   */\n      swap3\n      pop\n        /* \"#utility.yul\":1718:1940   */\n      pop\n        /* \"#utility.yul\":1705:1706   */\n      0x01\n        /* \"#utility.yul\":1702:1703   */\n      dup2\n        /* \"#utility.yul\":1698:1707   */\n      add\n        /* \"#utility.yul\":1693:1707   */\n      swap1\n      pop\n        /* \"#utility.yul\":1658:1940   */\n      jump(tag_55)\n    tag_57:\n        /* \"#utility.yul\":1662:1676   */\n      pop\n        /* \"#utility.yul\":1365:1947   */\n      pop\n      pop\n      pop\n        /* \"#utility.yul\":1253:1947   */\n      pop\n      pop\n      jump\t// out\n        /* \"#utility.yul\":1953:2268   */\n    tag_12:\n        /* \"#utility.yul\":2092:2096   */\n      0x00\n        /* \"#utility.yul\":2130:2133   */\n      0xe0\n        /* \"#utility.yul\":2119:2128   */\n      dup3\n        /* \"#utility.yul\":2115:2134   */\n      add\n        /* \"#utility.yul\":2107:2134   */\n      swap1\n      pop\n        /* \"#utility.yul\":2144:2261   */\n      tag_61\n        /* \"#utility.yul\":2258:2259   */\n      0x00\n        /* \"#utility.yul\":2247:2256   */\n      dup4\n        /* \"#utility.yul\":2243:2260   */\n      add\n        /* \"#utility.yul\":2234:2240   */\n      dup5\n        /* \"#utility.yul\":2144:2261   */\n      tag_36\n      jump\t// in\n    tag_61:\n        /* \"#utility.yul\":1953:2268   */\n      swap3\n      swap2\n      pop\n      pop\n      jump\t// out\n\n    auxdata: 0xa26469706673582212208b837c0a738540f19f2da2ac73252c66280f74d079bd90b2d369ca5cab51769d64736f6c634300081a0033\n}\n",
				"bytecode": {
					"linkReferences": {},
					"object": "6080604052348015600e575f80fd5b506102b08061001c5f395ff3fe608060405260043610610028575f3560e01c80630cc008bd1461002c5780636722799214610056575b5f80fd5b348015610037575f80fd5b50610040610074565b60405161004d91906101a3565b60405180910390f35b61005e610081565b60405161006b9190610261565b60405180910390f35b5f80600790508091505090565b61008961010e565b6040518060c00160405280600a815260200160148152602001601e81526020016028815260200160328152602001603c8152505f9060066100cb929190610130565b505f600780602002604051908101604052809291908260078015610104576020028201915b8154815260200190600101908083116100f0575b5050505050905090565b6040518060e00160405280600790602082028036833780820191505090505090565b826007810192821561015f579160200282015b8281111561015e578251825591602001919060010190610143565b5b50905061016c9190610170565b5090565b5b80821115610187575f815f905550600101610171565b5090565b5f819050919050565b61019d8161018b565b82525050565b5f6020820190506101b65f830184610194565b92915050565b5f60079050919050565b5f81905092915050565b5f819050919050565b6101e28161018b565b82525050565b5f6101f383836101d9565b60208301905092915050565b5f602082019050919050565b610214816101bc565b61021e81846101c6565b9250610229826101d0565b805f5b8381101561025957815161024087826101e8565b965061024b836101ff565b92505060018101905061022c565b505050505050565b5f60e0820190506102745f83018461020b565b9291505056fea26469706673582212208b837c0a738540f19f2da2ac73252c66280f74d079bd90b2d369ca5cab51769d64736f6c634300081a0033",
					"opcodes": "PUSH1 0x80 PUSH1 0x40 MSTORE CALLVALUE DUP1 ISZERO PUSH1 0xE JUMPI PUSH0 DUP1 REVERT JUMPDEST POP PUSH2 0x2B0 DUP1 PUSH2 0x1C PUSH0 CODECOPY PUSH0 RETURN INVALID PUSH1 0x80 PUSH1 0x40 MSTORE PUSH1 0x4 CALLDATASIZE LT PUSH2 0x28 JUMPI PUSH0 CALLDATALOAD PUSH1 0xE0 SHR DUP1 PUSH4 0xCC008BD EQ PUSH2 0x2C JUMPI DUP1 PUSH4 0x67227992 EQ PUSH2 0x56 JUMPI JUMPDEST PUSH0 DUP1 REVERT JUMPDEST CALLVALUE DUP1 ISZERO PUSH2 0x37 JUMPI PUSH0 DUP1 REVERT JUMPDEST POP PUSH2 0x40 PUSH2 0x74 JUMP JUMPDEST PUSH1 0x40 MLOAD PUSH2 0x4D SWAP2 SWAP1 PUSH2 0x1A3 JUMP JUMPDEST PUSH1 0x40 MLOAD DUP1 SWAP2 SUB SWAP1 RETURN JUMPDEST PUSH2 0x5E PUSH2 0x81 JUMP JUMPDEST PUSH1 0x40 MLOAD PUSH2 0x6B SWAP2 SWAP1 PUSH2 0x261 JUMP JUMPDEST PUSH1 0x40 MLOAD DUP1 SWAP2 SUB SWAP1 RETURN JUMPDEST PUSH0 DUP1 PUSH1 0x7 SWAP1 POP DUP1 SWAP2 POP POP SWAP1 JUMP JUMPDEST PUSH2 0x89 PUSH2 0x10E JUMP JUMPDEST PUSH1 0x40 MLOAD DUP1 PUSH1 0xC0 ADD PUSH1 0x40 MSTORE DUP1 PUSH1 0xA DUP2 MSTORE PUSH1 0x20 ADD PUSH1 0x14 DUP2 MSTORE PUSH1 0x20 ADD PUSH1 0x1E DUP2 MSTORE PUSH1 0x20 ADD PUSH1 0x28 DUP2 MSTORE PUSH1 0x20 ADD PUSH1 0x32 DUP2 MSTORE PUSH1 0x20 ADD PUSH1 0x3C DUP2 MSTORE POP PUSH0 SWAP1 PUSH1 0x6 PUSH2 0xCB SWAP3 SWAP2 SWAP1 PUSH2 0x130 JUMP JUMPDEST POP PUSH0 PUSH1 0x7 DUP1 PUSH1 0x20 MUL PUSH1 0x40 MLOAD SWAP1 DUP2 ADD PUSH1 0x40 MSTORE DUP1 SWAP3 SWAP2 SWAP1 DUP3 PUSH1 0x7 DUP1 ISZERO PUSH2 0x104 JUMPI PUSH1 0x20 MUL DUP3 ADD SWAP2 JUMPDEST DUP2 SLOAD DUP2 MSTORE PUSH1 0x20 ADD SWAP1 PUSH1 0x1 ADD SWAP1 DUP1 DUP4 GT PUSH2 0xF0 JUMPI JUMPDEST POP POP POP POP POP SWAP1 POP SWAP1 JUMP JUMPDEST PUSH1 0x40 MLOAD DUP1 PUSH1 0xE0 ADD PUSH1 0x40 MSTORE DUP1 PUSH1 0x7 SWAP1 PUSH1 0x20 DUP3 MUL DUP1 CALLDATASIZE DUP4 CALLDATACOPY DUP1 DUP3 ADD SWAP2 POP POP SWAP1 POP POP SWAP1 JUMP JUMPDEST DUP3 PUSH1 0x7 DUP2 ADD SWAP3 DUP3 ISZERO PUSH2 0x15F JUMPI SWAP2 PUSH1 0x20 MUL DUP3 ADD JUMPDEST DUP3 DUP2 GT ISZERO PUSH2 0x15E JUMPI DUP3 MLOAD DUP3 SSTORE SWAP2 PUSH1 0x20 ADD SWAP2 SWAP1 PUSH1 0x1 ADD SWAP1 PUSH2 0x143 JUMP JUMPDEST JUMPDEST POP SWAP1 POP PUSH2 0x16C SWAP2 SWAP1 PUSH2 0x170 JUMP JUMPDEST POP SWAP1 JUMP JUMPDEST JUMPDEST DUP1 DUP3 GT ISZERO PUSH2 0x187 JUMPI PUSH0 DUP2 PUSH0 SWAP1 SSTORE POP PUSH1 0x1 ADD PUSH2 0x171 JUMP JUMPDEST POP SWAP1 JUMP JUMPDEST PUSH0 DUP2 SWAP1 POP SWAP2 SWAP1 POP JUMP JUMPDEST PUSH2 0x19D DUP2 PUSH2 0x18B JUMP JUMPDEST DUP3 MSTORE POP POP JUMP JUMPDEST PUSH0 PUSH1 0x20 DUP3 ADD SWAP1 POP PUSH2 0x1B6 PUSH0 DUP4 ADD DUP5 PUSH2 0x194 JUMP JUMPDEST SWAP3 SWAP2 POP POP JUMP JUMPDEST PUSH0 PUSH1 0x7 SWAP1 POP SWAP2 SWAP1 POP JUMP JUMPDEST PUSH0 DUP2 SWAP1 POP SWAP3 SWAP2 POP POP JUMP JUMPDEST PUSH0 DUP2 SWAP1 POP SWAP2 SWAP1 POP JUMP JUMPDEST PUSH2 0x1E2 DUP2 PUSH2 0x18B JUMP JUMPDEST DUP3 MSTORE POP POP JUMP JUMPDEST PUSH0 PUSH2 0x1F3 DUP4 DUP4 PUSH2 0x1D9 JUMP JUMPDEST PUSH1 0x20 DUP4 ADD SWAP1 POP SWAP3 SWAP2 POP POP JUMP JUMPDEST PUSH0 PUSH1 0x20 DUP3 ADD SWAP1 POP SWAP2 SWAP1 POP JUMP JUMPDEST PUSH2 0x214 DUP2 PUSH2 0x1BC JUMP JUMPDEST PUSH2 0x21E DUP2 DUP5 PUSH2 0x1C6 JUMP JUMPDEST SWAP3 POP PUSH2 0x229 DUP3 PUSH2 0x1D0 JUMP JUMPDEST DUP1 PUSH0 JUMPDEST DUP4 DUP2 LT ISZERO PUSH2 0x259 JUMPI DUP2 MLOAD PUSH2 0x240 DUP8 DUP3 PUSH2 0x1E8 JUMP JUMPDEST SWAP7 POP PUSH2 0x24B DUP4 PUSH2 0x1FF JUMP JUMPDEST SWAP3 POP POP PUSH1 0x1 DUP2 ADD SWAP1 POP PUSH2 0x22C JUMP JUMPDEST POP POP POP POP POP POP JUMP JUMPDEST PUSH0 PUSH1 0xE0 DUP3 ADD SWAP1 POP PUSH2 0x274 PUSH0 DUP4 ADD DUP5 PUSH2 0x20B JUMP JUMPDEST SWAP3 SWAP2 POP POP JUMP INVALID LOG2 PUSH5 0x6970667358 0x22 SLT KECCAK256 DUP12 DUP4 PUSH29 0xA738540F19F2DA2AC73252C66280F74D079BD90B2D369CA5CAB51769D PUSH5 0x736F6C6343 STOP ADDMOD BYTE STOP CALLER "
				},
				"gasEstimates": {
					"creation": {
						"codeDepositCost": "137600",
						"executionCost": "181",
						"totalCost": "137781"
					},
					"external": {
						"array_example()": "infinite",
						"array_length()": "323"
					}
				},
				"methodIdentifiers": {
					"array_example()": "67227992",
					"array_length()": "0cc008bd"
				}
			},
			"storageLayout": {
				"storage": [
					{
						"astId": 92,
						"contract": "contracts/ArrayContract.sol:ArrayLength",
						"label": "data",
						"offset": 0,
						"slot": "0",
						"type": "t_array(t_uint256)7_storage"
					}
				],
				"types": {
					"t_array(t_uint256)7_storage": {
						"base": "t_uint256",
						"encoding": "inplace",
						"label": "uint256[7]",
						"numberOfBytes": "224"
					},
					"t_uint256": {
						"encoding": "inplace",
						"label": "uint256",
						"numberOfBytes": "32"
					}
				}
			},
			"userdoc": {
				"kind": "user",
				"methods": {},
				"version": 1
			}
		}
	}
}